:100000000C94D3000C94FB000C94FB000C94FB00AC
:100010000C94FB000C94FB000C94FB000C94FB0074
:100020000C94FB000C94FB000C94BF040C942E0564
:100030000C94FB000C94FB000C94FB000C94FB0054
:100040000C94FB000C9460070C94FB000C94FB00D8
:100050000C94FB000C94FB000C94FB000C947504B6
:100060000C94FB000C94FB000C94FB000C94FB0024
:100070000C94FB000C94FB000C94FB000C94FB0014
:100080000C94FB000C94FB000C94FB000C94FB0004
:100090000C94FB000C94FB000C94FB000C94FB00F4
:1000A0000C94FB000C94FB000C94FB00000000007F
:1000B0002300260029002C002F00080B000202025A
:1000C00001000904000001020200000524001001E3
:1000D0000524010101042402060524060001070588
:1000E000810310004009040100020A000000070516
:1000F00002024000000705830240000004030904D7
:1001000012010002EF02014041234180000101027F
:10011000030141726475696E6F204C4C430041725B
:100120006475696E6F2059756E0000000000240030
:1001300027002A002D0030000000000025002800C4
:100140002B002E0031000404040404030405020201
:100150000202040302020202060606060606040460
:1001600002020204040408020110408040102040F2
:10017000804080080204018040201002011080109D
:10018000204040200000000200090F00000304018D
:10019000000C000000000000000000000000000053
:1001A00000000000610811241FBECFEFDAE0DEBFBF
:1001B000CDBF11E0A0E0B1E0E8EDF7E102C00590AD
:1001C0000D92A832B107D9F721E0A8E2B1E001C051
:1001D0001D92A03CB207E1F710E0C3EDD0E004C0EF
:1001E0002197FE010E94E40BC23DD107C9F70E948E
:1001F00098080C94EA0B0C9400008F929F92AF9297
:10020000BF92FF920F931F93CF93DF93F090BD01A6
:100210002BE02F1508F44CC02091BF0108E512E037
:10022000021B110927FD1395000F111F000F111F4D
:100230002091BE01C8E8D0E0C21BD10927FDD395AB
:10024000CC0FDD1FCC0FDD1F4E010D2E000CAA08B8
:10025000BB089801012E000C440B550B28193909D5
:100260004A095B09DC010E946E0A24EB30E040E0A1
:1002700050E00E94440A820E931EA41EB51E8C16E6
:100280009D062CF0E801801691060CF4E4012297FB
:10029000CC0FDD1F2FB7F8948F2D90E0FC01EE0FEF
:1002A000FF1FE80FF91FE856FE4FD283C1832FBF0F
:1002B000DF91CF911F910F91FF90BF90AF909F90D2
:1002C0008F900895FC0180914701882311F13FB779
:1002D000F89482E08093E9002091F200822F90E070
:1002E0001816190614F481E090E0882339F0289854
:1002F00044E6409346014091F1004083222339F0C7
:100300002091F200211103C02BE62093E8003FBFAB
:1003100008958FEF9FEF08952FB7F89483E08093AF
:10032000E9009091E800892F807295FF04C09091B8
:10033000F20080E4891B2FBF089580913E01811156
:100340000DC082E080933A0184E080933B011092DB
:100350003D0110923C0181E080933E018AE391E0EF
:100360000895282F30E0F901EC57FE4F9491F901E0
:10037000EB59FE4F84912A5B3E4FF90124912223D1
:1003800009F430C09923E9F091509F30D0F4E92F5F
:10039000F0E0E353FE4F0C94E40BFB01FF01DC01A2
:1003A000F301F701E101E101E101020208020C029F
:1003B00010021602E1011A02909180009F7790933B
:1003C0008000E22FF0E0EE0FFF1FE85CFE4FA591EA
:1003D000B4919FB7F894EC91611132C080958E234F
:1003E0008C939FBF0895909180009F7DE8CF90915E
:1003F0008000977FE4CF94B59F7794BDE2CF94B50A
:100400009F7DFBCF909190009F7790939000D9CFE4
:10041000909190009F7DF9CF90919000977FF5CFBC
:100420009091C0009F779093C000CBCF9091C00077
:100430009F7DF9CF9091C200977F9093C200C1CF6A
:100440008E2BCECFCF93DF9390E0FC01EB59FE4F84
:1004500024918A5B9E4FFC0184918823D1F090E027
:10046000880F991FFC01E65DFE4FA591B491FC0138
:10047000E85CFE4FC591D49161110EC09FB7F8940E
:100480008C91E22FE0958E238C932881E223E883E0
:100490009FBFDF91CF9108958FB7F894EC91E22B35
:1004A000EC938FBFF6CF3FB7F894809136019091CF
:1004B0003701A0913801B091390126B5A89B05C03C
:1004C0002F3F19F00196A11DB11D3FBFBA2FA92FD3
:1004D000982F8827BC01CD01620F711D811D911DD0
:1004E00042E0660F771F881F991F4A95D1F708953C
:1004F0008F929F92AF92BF92CF92DF92EF92FF9234
:100500004B015C010E9453026B017C010E9453026B
:100510006C197D098E099F09683E7340810591051C
:10052000A8F321E0821A9108A108B10888EEC80E4C
:1005300083E0D81EE11CF11C81149104A104B104D4
:1005400029F7FF90EF90DF90CF90BF90AF909F90F2
:100550008F90089540912B0150912C0120912901F9
:1005600030912A0142175307B4F49091E800957036
:10057000E1F39091E80092FD19C08093F100809121
:100580002B0190912C0101968F739927892B19F4D7
:100590008EEF8093E80080912B0190912C010196C1
:1005A00090932C0180932B0181E0089580E00895C1
:1005B000EF92FF920F931F93CF93DF93F82E192F93
:1005C000E62E042F81E0860F880F0E94AA0283E0A6
:1005D0000E94AA02CF2DD12FEC0EFD2EF11CCE15BC
:1005E000DF05B9F007FF13C0FE0184910E94AA0243
:1005F000182F80E00E94AA02812321968111EFCF5B
:10060000DF91CF911F910F91FF90EF900895888116
:10061000EDCF81E0F5CFDF92EF92FF920F931F9322
:10062000CF93DF93D82E8A01EB017B01E40EF51EF8
:10063000CE15DF0559F0D7FE12C0FE0184910E944D
:10064000AA0221968111F4CF0FEF1FEFC801DF91AD
:10065000CF911F910F91FF90EF90DF9008958881C7
:10066000EECF0F931F93CF93DF931F92CDB7DEB7DB
:1006700082E0898342E450E06AEB70E080E80E9407
:100680000B030E949D01DC0112960D911C91011536
:10069000110589F0D801ED91FC910280F381E02DE4
:1006A000BE016F5F7F4FC801099597FD04C0F80137
:1006B00000851185ECCF89810F90DF91CF911F913B
:1006C0000F910895615030F02091F100FC012083DA
:1006D0000196F8CF289884E68093460108958F927A
:1006E0009F92AF92BF92CF92DF92EF92FF920F93C1
:1006F0001F93CF93DF936C017B018A0180910B01E3
:10070000882309F45CC080914701882309F457C00D
:1007100080912F0180FF05C08091E000826080936E
:10072000E000E801B12C8AEFA82E93E0892E2AE39D
:10073000922E209711F4BB20D9F10E948C018111D7
:100740000AC0AA94AA20D9F161E070E080E090E0AC
:100750000E947802EECF8C171D0611F00CF08C2F42
:100760009FB7F8948092E9002091E80025FD02C02F
:100770009FBFDFCF282F30E0C21BD30BF701815082
:1007800020F041914093F100FACFE20EF31EBB201E
:1007900021F09092E800B12CEBCF8091E80085FD2C
:1007A000E7CF9092E800BB24B394209709F3F3CFEE
:1007B0005D9884E680933001101611063CF081E0CC
:1007C00090E0F6019383828310E000E0C801DF919E
:1007D000CF911F910F91FF90EF90DF90CF90BF903E
:1007E000AF909F908F900895CF93DF931F92CDB7D6
:1007F000DEB76983DC01ED91FC910280F381E02D8D
:1008000041E050E0BE016F5F7F4F09950F90DF918F
:10081000CF91089583E08093E9008091F2008823CE
:1008200019F08AE38093E80008950E948C0190E01B
:100830000895CF93DF931F92CDB7DEB7FC01848577
:10084000958597FD08C02FEF3FEF358724870F90E0
:10085000DF91CF910895CE0101960E946201019728
:1008600019F4898190E0F3CF8FEF9FEFF0CF0F93D2
:100870001F93CF93DF931F92CDB7DEB78C01FC019E
:100880008485958597FF0BC0CE0101960E94620179
:10089000019771F4898190E0F80195878487F801C8
:1008A000848595850F90DF91CF911F910F910895C9
:1008B0008FEF9FEFF1CFFC018485958597FD0BC0ED
:1008C0009FB7F89482E08093E9008091F2009FBF87
:1008D00090E0019608959FB7F89482E08093E90034
:1008E0008091F2009FBF90E008951F920F920FB683
:1008F0000F9211242F933F938F939F93AF93BF93A6
:100900008091320190913301A0913401B091350171
:100910003091310123E0230F2D3758F50196A11DA9
:10092000B11D209331018093320190933301A09344
:100930003401B09335018091360190913701A09137
:100940003801B09139010196A11DB11D8093360186
:1009500090933701A0933801B0933901BF91AF91C3
:100960009F918F913F912F910F900FBE0F901F90ED
:10097000189526E8230F0296A11DB11DD2CF1F9214
:100980000F920FB60F9211248F939F938091E100E5
:100990009091E100937F9093E10083FF0FC010924C
:1009A000E90091E09093EB001092EC0092E39093B9
:1009B000ED001092470198E09093F00082FF22C072
:1009C00093E09093E9009091F200992319F09AE353
:1009D0009093E80090913001992341F0909130017B
:1009E000915090933001911101C05D9A9091460110
:1009F000992341F0909146019150909346019111B5
:100A000001C0289A84FF18C08091E2008E7E816028
:100A10008093E2008091E1008F7E8093E1008091DD
:100A20002F018E7E806180932F019F918F910F9077
:100A30000FBE0F901F90189580FFF7CF8091E200B6
:100A40008E7E80618093E2008091E1008E7E8093B3
:100A5000E10080912F018E7E8160E5CF1F920F9281
:100A60000FB60F921124CF92DF92EF92FF920F9365
:100A70001F932F933F934F935F936F937F938F9326
:100A80009F93AF93BF93EF93FF93CF93DF93CDB734
:100A9000DEB76C97DEBFCDBF1092E9008091E80011
:100AA00083FF25C068E0CE0145960E94620382EF75
:100AB0008093E8008D8987FF39C09091E80090FF0E
:100AC000FCCF982F907609F034C19E894F89588DBC
:100AD0002F89F88C911131C0803861F580912E01F9
:100AE0008093F1001092F1008EEF8093E8006C96F5
:100AF0000FB6F894DEBF0FBECDBFDF91CF91FF914F
:100B0000EF91BF91AF919F918F917F916F915F9185
:100B10004F913F912F911F910F91FF90EF90DF9098
:100B2000CF900F900FBE0F901F9018959EEF90934F
:100B3000E800C7CF1092F100D5CF913059F4811160
:100B4000D3CF4130510581F680912E018D7F809366
:100B50002E01CACF933049F48111C6CF41305105DF
:100B600019F680912E018260F2CF953041F4809188
:100B7000E80080FFFCCF20682093E300B5CF9630DB
:100B800009F0A9C00B8D1C8D22E01092E900109293
:100B90002C0110922B01F2122EC010922A011092F9
:100BA00029010E9431031F8299E09983FA8291E022
:100BB0009E8390EA98879AEF998720912B01309134
:100BC0002C01275F3F4F3C832B838D831092E900DC
:100BD00010922C0110922B0110932A0100932901ED
:100BE00049E050E0BE016F5F7F4F80E00E940B0341
:100BF0000E94310379CF10932A01009329010E94AA
:100C00009D01DC0112960D911C910115110509F44D
:100C100051C1D801ED91FC910480F581E02DBE0118
:100C20006B5E7F4FC8010995009709F03EC1F8013E
:100C300000851185EACFF3E0FF120EC08F8988236B
:100C400009F440C0823061F440E86BE08EE191E04D
:100C50000E94D802811148CF81E28093EB0047CFF8
:100C6000813029F440E86BE082E191E0F1CF8330FC
:100C700099F70E949D01DC011296ED90FC908E0187
:100C80000F5F1F4F6801E114F10479F0D701ED9176
:100C9000FC910680F781E02DB801C7010995080F86
:100CA000111DF701E084F184EECFD8011C92F6010A
:100CB00001900020E9F73197BF016C197D0940E0F0
:100CC000C601C6CF6CEF70E0FB01449150E080E8B4
:100CD0000E940B0309CF973009F4BECF983021F45E
:100CE00081E08093F10000CF993009F0FDCE837050
:100CF00009F0B2CFEDE0F1E081E031E096E321913F
:100D0000222371F08093E9003093EB00DF0111970B
:100D10002C912093EC009093ED008F5F873079F752
:100D20008EE78093EA001092EA008F898093470152
:100D3000DBCE8B8D9C8D1092E90010922C011092CD
:100D40002B0190932A0180932901898D811192C0F2
:100D50008E899D89913A49F4813209F07DCF47E02F
:100D600050E064E071E080E0B3CF913209F074CFDD
:100D7000833269F48F89988DB0E0A0E08093000100
:100D800090930101A0930201B0930301ADCE803294
:100D900069F48091E80082FFFCCF67E084E091E095
:100DA0000E9462038BEF8093E8009ECE823209F0AE
:100DB0009BCE8F8980930B01EEEFFFE78591949195
:100DC0008B3F9C4D51F1E0E0F8E08091040190915F
:100DD0000501A0910601B0910701803B9440A10557
:100DE000B105F1F480910B0180FD1AC0EE3F8AE05D
:100DF000F80789F587E797E7918380838091600002
:100E000080932D0188E19BE00FB6F894A89580931C
:100E100060000FBE9093600067CEEEEFFAE0D5CF92
:100E2000808191818737974709F05ECEA8958091A0
:100E3000600088618093600080912D018093600044
:100E4000EE3F2AE0F20789F08091FE0A9091FF0AB6
:100E50009183808349CE808191818737980751F2B1
:100E60009093FF0A8093FE0AC5CF1092FF0A10925A
:100E7000FE0A3ACE0E949D01DC0112960D911C9152
:100E80000115110509F4E8CED801ED91FC9101900E
:100E9000F081E02DBE016B5E7F4FC8010995811185
:100EA00023CEF80100851185EBCF181619060CF436
:100EB0001BCED2CEF1E0FF12BECE60E071E004CFD7
:100EC0001F920F920FB60F9211242F933F934F93BF
:100ED0005F936F937F938F939F93AF93BF93CF93C2
:100EE000DF93EF93FF9380912801C091BC01D0E084
:100EF00087FF24C010928500109284008091280101
:100F00008F5F8093280180912801082E000C990B97
:100F10008C179D0724F4809128018C30C4F18091B6
:100F2000840090918500049680349C4908F47AC02E
:100F30008091840090918500049676C0809128016C
:100F4000082E000C990B8C179D07C4F6E091280120
:100F50008E2FEE0F990BFC01EE0FFF1FE80FF91F0C
:100F6000E856FE4F808186FFC9CFE09128018E2F81
:100F7000EE0F990BFC01EE0FFF1FE80FF91FE8566B
:100F8000FE4F808160E08F730E94B101B7CF209146
:100F9000840030918500E09128018E2FEE0F990B8F
:100FA000FC01EE0FFF1FE80FF91FE856FE4F81818D
:100FB0009281820F931F9093890080938800E09123
:100FC00028018E2FEE0F990BFC01EE0FFF1FE80F8B
:100FD000F91FE856FE4F808186FF11C0E09128017D
:100FE0008E2FEE0F990BFC01EE0FFF1FE80FF91F7C
:100FF000E856FE4F808161E08F730E94B101FF913E
:10100000EF91DF91CF91BF91AF919F918F917F91A0
:101010006F915F914F913F912F910F900FBE0F9065
:101020001F90189580E49CE9909389008093880034
:101030008FEF80932801E3CFCF92DF92EF92FF9260
:101040000F931F93E82FF92F05C0015011092109B3
:10105000310961F1908196239417B9F305C00150CD
:1010600011092109310911F1908196239413F7CFC9
:10107000C12CD12CE12CF12C0AC08FEFC81AD80A50
:10108000E80AF80A0C151D052E053F0579F0808148
:101090008623841791F36C2D7D2D8E2D9F2D1F910E
:1010A0000F91FF90EF90DF90CF90089560E070E097
:1010B00080E090E01F910F91FF90EF90DF90CF9034
:1010C000089510924B0110924A0188EE93E0A0E03F
:1010D000B0E080934C0190934D01A0934E01B093EA
:1010E0004F0187E191E090934901809348018FEF90
:1010F0009FEF90935501809354018091BC018C30F7
:1011000098F491E0980F9093BC018093BD0190E01A
:10111000FC01EE0FFF1FE80FF91FE856FE4F88EBAA
:101120009BE09283818308958FEF8093BD010895A2
:10113000CF93DF93CDB7DEB7A1970FB6F894DEBF9C
:101140000FBECDBF789484B5826084BD84B58160C4
:1011500084BD85B5826085BD85B5816085BD809182
:101160006E00816080936E001092810080918100FA
:1011700082608093810080918100816080938100F2
:1011800080918000816080938000809191008260D6
:101190008093910080919100816080939100809173
:1011A00090008160809390008091C1008460809362
:1011B000C1008091C10082608093C1008091C10014
:1011C00081608093C1008091C30081608093C300DF
:1011D0008091C00082608093C0008091C2008160D5
:1011E0008093C20080917A00846080937A0080911D
:1011F0007A00826080937A0080917A008160809387
:101200007A0080917A00806880937A00109247017A
:1012100010922E0110922F018091D700816080934F
:10122000D70080EA8093D80089B5806189BD89B5EF
:10123000826089BD09B400FEFDCF61E070E080E00E
:1012400090E00E9478028091D8008F7C806180932A
:10125000D8008091E000807F8093E0008091E100E1
:101260008E7E8093E1008DE08093E200559A209A73
:101270008FEF9FEF909355018093540161E089E0D7
:101280000E94220260E08CE00E9422028091BD0157
:101290008C3008F051C061E08BE00E942202809106
:1012A000BD01282F30E0F901EE0FFF1FE20FF31F01
:1012B000E856FE4F9081907C9B6090831092BE0117
:1012C0001092BF012CE0622F0E94D80B829FB001C8
:1012D000112430E020E0AB01420F531FFA01EE0F62
:1012E000FF1FE40FF51FE856FE4F908196FD16C0D4
:1012F0002F5F3F4F2C30310571F781110FC01092D5
:10130000800082E08093810010928500109284001A
:10131000B19A80916F00826080936F00E091BD016F
:101320008E2F90E0FC01EE0FFF1FE80FF91FE8562B
:10133000FE4F80818064808390E080E00E94FD0009
:1013400022E5C22E21E0D22E912C812C712C612C11
:1013500030E0A32E30E0B32E60E089E00E94B101BE
:1013600065E070E080E090E00E94780261E089E052
:101370000E94B1016AE070E080E090E00E94780293
:1013800060E089E00E94B101E1E7F1E06491F601DB
:101390008491E82FF0E0EE0FFF1FE455FF4F859199
:1013A000949100E412E42FE030E0462F0E941C08E4
:1013B000611571058105910529F06F5F7F4F8F4F92
:1013C0009F4F9F708B01292D382D472D562D19A227
:1013D000CE0181967C018AE0282E312C412C512CA3
:1013E000CA01B901A20191010E94760A605DF7016C
:1013F00062937F01211531054105510589F7309729
:1014000061F001900020E9F73197AF014E195F09B3
:10141000B70188E491E00E946F0342E050E065E28A
:1014200071E088E491E00E946F03B801110F880B0E
:10143000990B0E94DF0A2EE338EE49E55CE30E9437
:10144000430B20E030E040E05FE30E94430B0E944A
:10145000A70A9B0184EB90E02630310564F46250CA
:10146000710990E080E06330710528F02230310589
:1014700024F48AE590E00E94FD00A114B10409F46F
:101480006BCF0E94000068CF052E97FB1EF40094DE
:101490000E945B0A57FD07D00E94760A07FC03D022
:1014A0004EF40C945B0A50954095309521953F4F32
:1014B0004F4F5F4F089590958095709561957F4F40
:1014C0008F4F9F4F08950E94980AA59F900DB49F3B
:1014D000900DA49F800D911D11240895B7FF0C94C9
:1014E000630A0E94630A821B930B0895A1E21A2EDD
:1014F000AA1BBB1BFD010DC0AA1FBB1FEE1FFF1FB8
:10150000A217B307E407F50720F0A21BB30BE40B07
:10151000F50B661F771F881F991F1A9469F760954E
:101520007095809590959B01AC01BD01CF01089508
:10153000A29FB001B39FC001A39F700D811D112414
:10154000911DB29F700D811D1124911D08950E945F
:10155000AE0A6894B1110C943D0B08950E94220BC1
:1015600088F09F5798F0B92F9927B751B0F0E1F064
:10157000660F771F881F991F1AF0BA95C9F714C014
:10158000B13091F00E943C0BB1E008950C943C0BFB
:10159000672F782F8827B85F39F0B93FCCF386954D
:1015A00077956795B395D9F73EF4909580957095AA
:1015B00061957F4F8F4F9F4F0895E89409C097FB27
:1015C0003EF490958095709561957F4F8F4F9F4F1A
:1015D0009923A9F0F92F96E9BB279395F69587955E
:1015E00077956795B795F111F8CFFAF4BB0F11F421
:1015F00060FF1BC06F5F7F4F8F4F9F4F16C08823C8
:1016000011F096E911C0772321F09EE8872F762FFD
:1016100005C0662371F096E8862F70E060E02AF03E
:101620009A95660F771F881FDAF7880F969587952A
:1016300097F9089557FD9058440F551F59F05F3F93
:1016400071F04795880F97FB991F61F09F3F79F0E4
:1016500087950895121613061406551FF2CF469566
:10166000F1DF08C0161617061806991FF1CF8695E8
:101670007105610508940895E894BB2766277727CC
:10168000CB0197F908950E94560B0C94C70B0E944A
:10169000B90B38F00E94C00B20F0952311F00C9488
:1016A000B00B0C94B60B11240C943D0B0E941A0B3A
:1016B00070F3959FC1F3950F50E0551F629FF001A5
:1016C000729FBB27F00DB11D639FAA27F00DB11DBE
:1016D000AA1F649F6627B00DA11D661F829F222747
:1016E000B00DA11D621F739FB00DA11D621F839FCE
:1016F000A00D611D221F749F3327A00D611D231FA4
:10170000849F600D211D822F762F6A2F11249F57F1
:1017100050409AF0F1F088234AF0EE0FFF1FBB1FF4
:10172000661F771F881F91505040A9F79E3F5105B3
:1017300080F00C94B00B0C943D0B5F3FE4F3983EAB
:10174000D4F3869577956795B795F795E7959F5F5D
:10175000C1F7FE2B880F911D9695879597F90895EF
:1017600097F99F6780E870E060E008959FEF80EC54
:10177000089500240A9416161706180609060895F7
:1017800000240A9412161306140605060895092E5D
:101790000394000C11F4882352F0BB0F40F4BF2BCC
:1017A00011F460FF04C06F5F7F4F8F4F9F4F08950C
:1017B000991B79E004C0991F961708F0961B881FA3
:1017C0007A95C9F780950895EE0FFF1F0590F49163
:0817D000E02D0994F894FFCF0D
:1017D800FFFFFFFF00E100000000000000C1808162
:1017E80000000000000000F4036F0315040A045B06
:0817F80004190437040D0A0076
:00000001FF
